:060000000203A10212CF71
:01000B0032C2
:0100130032BA
:01001B0032B2
:0100230032AA
:01002B0032A2
:030033000224653F
:01003B003292
:01004300328A
:01004B003282
:01005300327A
:01005B003272
:01006300326A
:03006B000224EC80
:01007300325A
:01007B003252
:030083000213D095
:01008B003242
:01009300323A
:03009B0002093324
:0100A300322A
:0100AB003222
:0100B300321A
:0100BB003212
:0100C300320A
:0100CB003202
:0100D30032FA
:0300DB0002098C8B
:0100E30032EA
:0100EB0032E2
:0100F30032DA
:0100FB0032D2
:0101030032C9
:01010B0032C1
:0101130032B9
:01011B0032B1
:0101230032A9
:01012B0032A1
:010133003299
:01013B003291
:010143003289
:01014B003281
:010153003279
:01015B003271
:010163003269
:01016B003261
:010173003259
:01017B003251
:010183003249
:01018B003241
:010193003239
:01019B003231
:0101A3003229
:0101AB003221
:0101B3003219
:0101BB003211
:0301C300020835FA
:0101CB003201
:0101D30032F9
:0101DB0032F1
:0101E30032E9
:0101EB0032E1
:0101F30032D9
:0101FB0032D1
:0102030032C8
:01020B0032C0
:0102130032B8
:01021B0032B0
:0102230032A8
:01022B0032A0
:010233003298
:01023B003290
:010243003288
:01024B003280
:010253003278
:01025B003270
:010263003268
:01026B003260
:010273003258
:01027B003250
:010283003248
:01028B003240
:010293003238
:01029B003230
:0102A3003228
:0102AB003220
:0102B3003218
:0102BB003210
:0102C3003208
:0102CB003200
:0102D30032F8
:0102DB0032F0
:0102E30032E8
:0102EB0032E0
:0102F30032D8
:0102FB0032D0
:0103030032C7
:01030B0032BF
:0103130032B7
:01031B0032AF
:0103230032A7
:01032B00329F
:010333003297
:01033B00328F
:010343003287
:01034B00327F
:010353003277
:01035B00326F
:010363003267
:01036B00325F
:010373003257
:01037B00324F
:010383003247
:01038B00323F
:010393003237
:03039B000208A0B5
:1003FA00750D00750E00750F0075100075110075EA
:08040A00120075130002039EAD
:03039E00020E2E1E
:10041200AF82BF0128E5577012AFF174FE5FF5F1AC
:1004220043F33CAFF474C35FF5F422AFF174FD5FA4
:10043200F5F143F33CAFF4740F5FF5F422E5577026
:100442000E43F10143F43CAFF374C35FF5F322436F
:10045200F10243F4F0AFF374C35FF5F322AC82AD63
:1004620083AEF0FF53C680E5C620E6FB43BE048C94
:10047200C2E5C554E0FF3395E0FEFDFCE5574207B7
:10048200E5584206E5594205E55A42048FC522AFB6
:10049200827E007D00BD0500502FED75F004A4247E
:1004A200C6F58274F735F0F583E0F9A3E0FAA3E02C
:1004B200FBA3E0FCE9B5080EEAB5090AEBB50A06AA
:1004C200ECB50B028D060D80CCBF1802800CBF1A52
:1004D20002804ABF200302056222EE75F004A4FDE9
:1004E200AFF02416F582EF34F8F583E0F9A3E0FAD1
:1004F200A3E0FBA3E0FCED2402F582EF34F8F583E0
:10050200E0F557A3E0F558A3E0F559A3E0F55A89C1
:10051200828A838BF0ECC00612045FD006EE75F07F
:1005220004A4FDAFF024EEF582EF34F7F583E0F991
:10053200A3E0FAA3E0FBA3E0FCED24DAF582EF34BA
:10054200F7F583E0F557A3E0F558A3E0F559A3E0EA
:10055200F55A89828A838BF0ECC00612045FD006BA
:10056200EE75F004A4FEAFF0243EF582EF34F8F508
:1005720083E0FAA3E0FBA3E0FCA3E0FDEE242AF56E
:1005820082EF34F8F583E0F557A3E0F558A3E0F5E0
:1005920059A3E0F55A8A828B838CF0ED02045FAF97
:1005A2008290F208EF13E092E0F022AF8290F2081C
:1005B200EF13E092E1F022AF8290F208EF13E092A3
:1005C200E2F022AF8290F208EF13E092E3F022AF62
:1005D2008290F208EF13E092E4F022AF8290F208E8
:1005E200EF13E092E5F022AF8290F208EF13E0926F
:1005F200E6F022AF8290F208EF13E092E7F022AF2A
:100602008290F209EF13E092E0F022AD82AE83AF66
:10061200F08D028E038F048A828B838CF012266FF8
:1006220030E00302071B438680ACC45304FE8D01F5
:100632008E028F0389828A838BF012266F03540104
:100642004CF5C4ACC45304FD8D018E028F03898224
:100652008A838BF012266F0303540125E04CF5C404
:10066200ACC45304FB8D018E028F0389828A838B73
:10067200F012266FC423540125E025E04CF5C4ACEA
:10068200C45304F78D018E028F0389828A838BF013
:1006920012266FC45401C40354F84CF5C4ACC453BD
:1006A20004EF8D018E028F0389828A838BF01226DA
:1006B2006FC4035401C454F04CF5C4ACC45304DFFA
:1006C2008D018E028F0389828A838BF012266F231B
:1006D200235401C42354E04CF5C4ACC45304BF8D6D
:1006E200018E028F0389828A838BF012266F235434
:1006F20001030354C04CF5C4ACC55304DF74012D8F
:10070200F9E43EFA8F0389828A838BF012266F54B2
:1007120001C42354E04CF5C52243F880ACFB5304DA
:10072200FE8D018E028F0389828A838BF012266FDF
:100732000354014CF5FBACFB5304FD8D018E028F7B
:100742000389828A838BF012266F0303540125E00A
:100752004CF5FBACFB5304FB8D018E028F038982A7
:100762008A838BF012266FC423540125E025E04CC6
:10077200F5FBACFB5304F78D018E028F0389828A4D
:10078200838BF012266FC45401C40354F84CF5FB5A
:10079200ACFB5304EF8D018E028F0389828A838B17
:1007A200F012266FC4035401C454F04CF5FBACFBA9
:1007B2005304DF8D018E028F0389828A838BF012AC
:1007C200266F23235401C42354E04CF5FBACFB53A6
:1007D20004BF8D018E028F0389828A838BF01226D9
:1007E2006F235401030354C0F94CF5FBACFC5304D2
:1007F200DF0DBD00010E8D828E838FF012266F54A5
:1008020001C42354E04CF5FC22AF8290F202740141
:10081200F0E4A3F0EF700DC2E9439A0490F100E016
:10082200F5C1800BC2EA439A0890F100E0F5F94362
:10083200A88022C0E0C082C083C007C006C005C035
:1008420004C0D075D000C2E990F202E0FEA3E0FF3E
:1008520090F206E0FCA3E0FDC3EC9EED9F501690E3
:10086200F202E4F0A3F090F206F0A3F0AD9A74F76E
:100872005DF59A801890F20274012EF0E43FA3F025
:10088200EE2400F582EF34F1F583E0F5C1D0D0D04B
:1008920004D005D006D007D083D082D0E032C0E0A9
:1008A200C082C083C007C006C005C004C0D075D0D6
:1008B20000C2EA90F202E0FEA3E0FF90F206E0FC42
:1008C200A3E0FDC3EC9EED9F501690F202E4F0A36C
:1008D200F090F206F0A3F0AD9A74F75DF59A8018E5
:1008E20090F20274012EF0E43FA3F0EE2400F582B0
:1008F200EF34F1F583E0F5F9D0D0D004D005D0067D
:10090200D007D083D082D0E032AF8290F200E4F000
:10091200A3F090F204F0A3F0EF700AC28B4386407A
:1009220043A8048008C28F43F84043A80843A88024
:1009320022C0E0C082C083C007C006C0D075D0000C
:10094200C28B90F204E0FEA3E0FF90F20474012E49
:10095200F0E43FA3F0EE2400F582EF34F0F583E5F6
:10096200C1F090F200E0FEA3E0FFC39401400E90BC
:10097200F200E4F0A3F0AFA874FB5FF5A8D0D0D0EA
:1009820006D007D083D082D0E032C0E0C082C083DC
:10099200C007C006C0D075D000C28F90F200E0FE42
:1009A200A3E0FF90F20074012EF0E43FA3F0EE24E6
:1009B20000F582EF34F0F583E5F9F090F200E0FE05
:1009C200A3E0FFC39401400E90F200E4F0A3F0AF65
:1009D200A874F75FF5A8D0D0D006D007D083D08214
:1009E200D0E03290F206E0FEA3E0FF4E6004758292
:1009F200012275820022AF83E58290F20AF0EFA312
:100A0200F0AE0C7F001EBEFF011F90F206EEF0EF6B
:100A1200A3F090F20AE0FEA3E0FF7D00C3ED950C87
:100A2200501AED2400FBE434F1FCED2EF582E43F94
:100A3200F583E0FA8B828C83F00D80E090F208E07F
:100A42005401F58202080BAF8290F2067401F0E4C1
:100A5200A3F090F100EFF090F208E05401F5820269
:100A6200080B90F204E0FEA3E0FF4E6004758201E1
:100A7200227582002290F200E0FEA3E0FFEE240045
:100A8200F582EF34F0F583E0FD90F20074012EF070
:100A9200E43FA3F090F200E0FEA3E0FF90F204E056
:100AA200FBA3E0FCC3EB9EEC9F500D90F204E4F03C
:100AB200A3F090F200F0A3F08D822290F206E0FE05
:100AC200A3E090F202E0FDA3E0EEC39DF58222AF27
:100AD200828F08750900750A00750B0075821A125B
:100AE200049190F20875F00012060D90F208E0549D
:100AF20001F58202090B22758201020A4975820000
:100B0200020A49850F19751A00751B0090F0000240
:100B1200100E90F000E0FFB50D02801E8F0D750ED5
:100B22000090F002E0FF8F0F75F011EF84F5107561
:100B3200F011EF84E5F06002051090F001E0FFFD96
:100B42007E001DBDFF011EAB0E7C00EBB5056FECF8
:100B5200B5066B8F0E7F03BF1400504A8F057E00CF
:100B6200AB0E7C00EB24FFF557EC34FFF5589000F8
:100B720011C007C006C005122652AB82AC83D00555
:100B8200D006D007EB2DFDEC3EFEED240CFDEE343D
:100B9200F2FEEF2400F582E434F0F583E0FC8D826E
:100BA2008E83F00F80B190F200E4F0A3F090F20493
:100BB200F0A3F0120AF9E50EB51006020B05020ABF
:100BC200FF227F00051190F40CE0FDE4FE240FF5F6
:100BD20082ED34F4F583E0F51375F01184F51275A6
:100BE200F011E51384E5F060020512751400C3E507
:100BF20014951240012290F30CE511F090F30DE5EB
:100C020014F090F30EE513F0E51475F011A4F51548
:100C120085F0168F03BB1100503A8B017A007403E2
:100C220029F8E43AFEE8240CF8EE34F3FE90F40CD2
:100C3200E0FCE4240FFDEC34F4FCE92515F9EA3577
:100C420016FAE92DF582EA3CF583E0FD88828E836F
:100C5200F00B80C18B07750C1490F30CC0071209BE
:100C6200F89001F412154ED0070514020BF07464CB
:100C7200440A60099001F412154E120B14E5176034
:100C82006C90F71F740DF0AF9A74FE5FF59AE5173A
:100C920030E45490F40DE0FEA3E0FF4EB40100E412
:100CA20033FE90F40CF0EE2413FEE434F6FF8E8251
:100CB2008F83E07032120BC490F40CE02413F5829F
:100CC200E434F6F5837401F090F40CE0FEE4240FB2
:100CD200FFEE34F4FE7D008D578D587559018F82D9
:100CE2008E838DF0122618751700439A012290F711
:100CF200BBE054FDF09000002222AD82AE83AFF043
:100D020012266FFC20E703020D9074012DFAE43ED7
:100D1200FB8F048A828B838CF012266FFC600DBCE1
:100D22000102801ABC0202802A020DB675310275D8
:100D3200320090F71F75F00012193B020DB690DEDB
:100D420000E0FC7B007533288B348C828B83121974
:100D52009A806174022DFAE43EFB8F048A828B83AF
:100D62008CF012266FFAA312266FFB74062DF8E49C
:100D72003EF98F04888289838CF012266FF533A3A3
:100D820012266FF5348A828B8312199A8026740494
:100D92002DFDE43EFE8D828E838FF012266FFDA321
:100DA20012266FFEED540F600B121A8790F7ADE01A
:100DB20054FDFFF09000002243FD0FC280C281C2A9
:100DC20082C28343FE03C29022AFBE74FB5FF5BEB4
:100DD200E5BE30E6FBAFC674B85FF5C6E5C620E6F1
:100DE200FB43BE04E5BE30E6FB22120DCB120DBA68
:100DF2007582001205A17582001205AD758200127E
:100E020005B97582001205C57582001205D1758279
:100E1200001205DD7582001205E97582001205F5E2
:100E2200758200120601758248020AD1120DEC1277
:100E3200192990F8527401F0751800758201120E8A
:0E0E420050D2AF120AF8122366120C7080F81C
:1026A300600900008025000000E1000000C2010075
:1026B3000084030006000000080000000B00000077
:1026C3000C0000000D0000008300000083000000E8
:1026D300220000002200000022000000060000008B
:1026E300080000000B0000000C0000000D000000BB
:1026F300A3000000A30000003B0000003B0000001B
:102703003B00000006000000080000000A00000073
:102713000B0000000C0000003B0000003B00000029
:0D272300D8000000D8000000D80000000021
:100E5000AF827D177EF78ED57D177EF77E008DD40D
:100E60008E578E5875590290F40F75F000C0071216
:100E7000261875570075580075590190F61675F0CB
:100E800000122618D00790DF2FE4F090DF30F090AA
:100E9000DF31F090DF0014F090DF01E4F090DF022A
:100EA00014F090DF03E4F090DF04F090DF05F090A1
:100EB000DF06F090DF077406F090DF08E4F0EF70D3
:100EC0001490DF097424F090DF0A742EF090DF0B89
:100ED0007438F0801190DF097426F090DF0A7430C6
:100EE000F090DF0BE4F090DF0C7459F090DF0D749C
:100EF00066F090DF0E03F090DF0F7462F090DF1069
:100F0000741AF090DF117413F090DF127407F090F0
:100F1000DF137430F090DF1403F090DF1514F090BD
:100F2000DF16746CF090DF177403F090DF187440D4
:100F3000F090DF197491F090DF1A7456F090DF1B77
:100F40007412F090DF1C74E9F090DF1D742AF090A9
:100F5000DF1EE4F090DF1F741FF090DF237488F031
:100F600090DF247431F090DF257409F090DF27E4DE
:100F7000F090DF28F090DF29F090DF2AF090DF2B4F
:100F8000F090DF2C7452F090DF2DE4F090DF2EF023
:100F9000C2A87591D175E900751700439A01020F37
:100FA000C775E10290DF3BE0FF540D60F790F71644
:100FB0007403F02275E10390DF3BE0FF541360F708
:100FC00090F7167403F02275E10490DF3BE0FF30E8
:100FD000E0F890F7167403F0227E007F00C3EE94D1
:100FE000DCEF9405502490DF3CE0FD545060049009
:100FF000000122900032C007C006121575D006D03D
:101000000774322EFEE43FFF80D390000022AE82B0
:10101000AF83C007C006120FC7D006D007E5194539
:101020001A70118E828F83E0FD7C0074012DF519FA
:10103000E43CF51AE51BB40100920092A875570034
:10104000851958851A5990F61675F000C007C00624
:10105000122618D006D0078E578F5875590090F673
:101060001675F000C007C0061225D8D006D007902C
:10107000F853E4F0E51B70030211058F0590F71794
:10108000EDF090F718EEF07ED97FDF8F0690F7191C
:10109000EEF07ED97FDF90F71AEEF0AF1A90F71BD3
:1010A000EF541FF5F0E054E045F0F090F71BE054EA
:1010B0001FF0AF1990F71CEFF090F71DE054E044DB
:1010C00013F090F71DE0549FF090F71DE0547FF06F
:1010D00090F71EE054FC4401F090F71EE054FBF042
:1010E00090F71EE054F7F090F71EE0543F4440F0B4
:1010F00090F71EE054CFF07E177FF78FD57E177FD5
:10110000F77F008ED475E10290DF3BE0FF540D6065
:10111000F77F051FC007120FD9E5828583F0D0073E
:1011200045F07003EF70ECEF6031E51B601DAFD14F
:1011300074FE5FF5D143D68100000000000000007E
:1011400075D601000000000000000075E10390DF8B
:101150003BE0FF541360F77582012275820022E59F
:1011600082FFB40100920192A890F615EFF0755736
:101170000075580075590190F40F75F000C0071202
:101180002618D00790F60FE4F0A3F090F611F0A324
:10119000F090F613F090F61404F090F40DE4F0A340
:1011A000F0AE9B74FC5EF59BAEE974EF5EF5E9EF83
:1011B000700302126E7ED97FDF8F0690F717EEF074
:1011C0007ED97FDF90F718EEF090F40DE0FEA3E0FB
:1011D0008E07E4240FEF34F4FE90F719EEF090F44C
:1011E0000DE0FEA3E08E07E4240FFEEF34F490F749
:1011F0001AEEF090F71BE054E0F090F71BE0541F5C
:10120000F090F71C740CF090F71DE054E04413F0DC
:1012100090F71DE0549FF090F71DE0547FF090F799
:101220001EE054FC4401F090F71EE054FBF090F7F0
:101230001EE054F7F090F71EE0543FF090F71EE0E8
:1012400054CF4410F07E177FF78FD57E177FF78E2F
:10125000D4AFD174FE5FF5D143D681000000000009
:1012600000000075D601000000000000000075E1DC
:101270000243911022AF9174EF5FF591120FC743B3
:10128000D681AFD174FE5FF5D1AF9B74FC5FF59B47
:10129000AFE974EF5FF5E92290F716E0FFBF0101B7
:1012A0002290F7167401F090F615E0F58202115FB6
:1012B00090F716E0FFBF010912127590F71674033C
:1012C000F02290F8547401F02290F854E4F022C017
:1012D000E0C082C083C007C006C005C004C003C010
:1012E00002C001C000C0D075D00090F7207411F08A
:1012F00090DF3BE0FFBF0D02800302138590F40DE9
:10130000E0FEA3E08E07E4240FFEEF34F4FF90F438
:101310000DE0FCA3E0CC25E0CC33FDEC240FFCED8C
:1013200034F6FD8C828D83E0FAA3E0FB74012AF889
:10133000E43BF98C828D83E8F0E9A3F0EA2EF58294
:10134000EB3FF583E5D9F090F40DE0FEA3E0CE2568
:10135000E0CE33FFEE240FF582EF34F6F583E0FEA6
:10136000A3E0FFC39401404D90F40DE0FEA3E0CE56
:1013700025E0CE33FFEE240FF582EF34F6F583E45B
:10138000F0A3F0803090DF3BE0FFBF132890F853CC
:10139000E02416FFE434F6FE8F828E83E060169020
:1013A000F853E0FFE02401F0EF2416F582E434F670
:1013B000F583E0F5D9C289D0D0D000D001D002D0D9
:1013C00003D004D005D006D007D083D082D0E0323D
:1013D000C021C0E0C0F0C082C083C007C006C00505
:1013E000C004C003C002C001C000C0D075D00090CE
:1013F000F7207410F0AF9B74FC5FF59BE5E9421792
:10140000E5E930E00AAFE974FE5FF5E9021531E580
:10141000E930E61612127590F615E0F58212115FAA
:10142000AFE974BF5FF5E9021531E5E930E70D1268
:101430000FC7AFE9747F5FF5E9021531E5E920E4F4
:101440000302153190F716E0FFBF020643D6810272
:10145000152A90F40DE0FEA3E0FF4EB40100E43342
:10146000FE2413F582E434F6F583E0FFBF01028029
:10147000030214EC90F40DE0FEA3E0FF90F40D7471
:10148000016EF0EFA3F090F40DE0FEA3E0CE25E0B6
:10149000CE33FFEE240FF582EF34F6F583E4F0A3AC
:1014A000F090F613F090F614F090F615E0FF70034C
:1014B00002152A90F40DE0FEA3E08E07E4240FEF5E
:1014C00034F4FE90F719EEF090F40DE0FEA3E08EF8
:1014D00007E4240FFEEF34F47F0090F71AEEF07566
:1014E000D6010000000000000000803E90F40DE0F6
:1014F000FEA3E08E07E4240FFEEF34F4FF7D008DA1
:10150000578D587559018E828F838DF01226189051
:10151000F40DE0FEA3E0CE25E0CE33FFEE240FF580
:1015200082EF34F6F583E4F0A3F0AFE974EF5FF5F2
:10153000E9D0D0D000D001D002D003D004D005D063
:0E15400006D007D083D082D0F0D0E0D0213288
:022730000000A7
:10154E00AE82AF831EBEFF011FC3E49E74808FF078
:10155E0063F08095F0500F7CB07D041CBCFF011D24
:10156E00EC4D70F780DE22AE82AF831EBEFF011FF0
:10157E00C3E49E74808FF063F08095F040ED22AE50
:10158E0082AF83C2AFD2909003E8C007C006121597
:10159E004EC2909001F412154ED006D007151CAD18
:1015AE001CED20E754EE30E024900019C007C00671
:1015BE00C00512154ED29090022612154EC2909072
:1015CE00001912154ED005D006D0078022900113B7
:1015DE00C007C006C00512154ED2909000321215EB
:1015EE004EC29090011312154ED005D006D007EFC3
:1015FE00C313CE13CEFF1D80A8C2909003E8121520
:10160E004ED2AF22AF827E0190DE0E7405F0E5273A
:10161E0045287001227C647D0090F7BBE0FB30E032
:10162E002CEC4D6028D290900002C007C006C00579
:10163E00C00412154EC29090000A12154ED004D05E
:10164E0005D006D00790F7207401F080CCBE012D96
:10165E007E0090DE2A7440F0EFF0E526F0AA277B9C
:10166E0000EAF0E528F0C374EF9527740195285031
:10167E00067CEF7D01801BAC27AD288015C374F46A
:10168E0095277401952850067CF47D018004AC27C3
:10169E00AD28E527C39CF527E5289DF528A929AA9D
:1016AE002AAB2BEC4D700889298A2A8B2B801B893B
:1016BE00828A838BF012266FF8A3A982AA8390DE0A
:1016CE002AE8F01CBCFF011D80D990DE11E0FD74EC
:1016DE00014DF090F7BBE04401FDF002161CAF8205
:1016EE007E0190DE0E7405F0E52D452E7001227CF4
:1016FE00647D0090F7BBE0FB30E031EC4D602DD205
:10170E0090900002C007C006C005C00412154EC25C
:10171E009090000A12154ED004D005D006D0079036
:10172E00F7207401F01CBCFF011D80C7BE012D7E89
:10173E000090DE2A7440F0EFF0E52CF0AC2D7D0029
:10174E00ECF0E52EF0C374EF952D7401952E500636
:10175E007CEF7D01801BAC2DAD2E8015C374F495EE
:10176E002D7401952E50067CF47D018004AC2DADB8
:10177E002EE52DC39CF52DE52E9DF52E43D682AA82
:10178E002FAB308B0190F7BEE9F07B0090F7BFEAEC
:10179E00F090F7C074DEF090F7C1742AF090F7C3A2
:1017AE00ECF090F7C2E054E0F090F7C5E0543F44FF
:1017BE0040F090F7C5E054CFF043D60243D702E590
:1017CE00D130E1FBADD174FD5DF5D190DE11E0FDC0
:1017DE0074014DF090F7BBE04401FDF00216F69057
:1017EE00DE00E0FF700F90F7BDE0FFBF0100500577
:1017FE0012236680EAD2909000C812154EC29090C5
:10180E0000C802154EAFBE747F5FF5BE43BE807E2C
:10181E00BE7FF78FD37EBE7FF78ED290F7C2E05495
:10182E001FF090F7C4E0547FF090F7C2E054E0F060
:10183E0090F7C4E0549F4420F090F7C4E054E0F0D9
:10184E0090F7C5E04408F0E054FBF090F7C5E05483
:10185E00FC4401F090DE01E0FF74FE5FF0E4F5253C
:10186E00F523F524F52290DE0EF090DE107408F0CC
:10187E0090DE13F090F7AEE4F090F7ADF090F7A491
:10188E00F0A3F090F7A67421F074F7A3F0E4A3F0A0
:10189E0090F7A9F0A3F090F7AB7440F0E4A3F090AA
:1018AE00DE0E7405F090DE10743FF090DE137408B7
:1018BE00F090DE15E0FF74804FF090DE12E0FF74C2
:1018CE00804FF090F7BCE4F090F7BBF090F7B2F0D9
:1018DE00A3F090F7B47461F074F7A3F0E4A3F09062
:1018EE00F7B7F0A3F090F7B97440F0E4A3F090DEF0
:1018FE000B74F7F090DE0774FFF090DE09F0438C66
:10190E0010AF8C74FE5FF58CD2BD439A02758900C0
:10191E00C2C5758B00C2E8439A022290F71F74026B
:10192E00F043BE80021813D29022C29022AD82AE36
:10193E0083AFF090F7AEE06034D2909003E81215CA
:10194E004EC2909003E812154ED2909003E81215F5
:10195E004EC2909003E812154ED2909003E81215E5
:10196E004EC2909003E812154E90FFFF2290F7A101
:10197E00EDF0EEA3F0EFA3F090F7A4E531F0E53231
:10198E00A3F090F7AE7401F090000022AE82AF8308
:10199E0090F7AEE06034D2909003E812154EC290EC
:1019AE009003E812154ED2909003E812154EC29095
:1019BE009003E812154ED2909003E812154EC29085
:1019CE009003E812154E90FFFF227D0090F7A1EED6
:1019DE00F0EFA3F0EDA3F090F7A4E533F0E534A318
:1019EE00F090F7AE7401F0900000227F0290DE0EB0
:1019FE00E4F090F7A4E0FDA3E0FEC374409DE49EE6
:101A0E0050047C4080048D047F0A8C027B00EDC361
:101A1E009AFDEE9BFE90F7A4EDF0EEA3F08C06EE91
:101A2E00603690F7A1E0FBA3E0FCA3E0FD8B828C77
:101A3E00838DF012266F90DE20F090F7A1E0FBA3CD
:101A4E00E0FCA3E0FD0BBB00010C90F7A1EBF0EC6A
:101A5E00A3F0EDA3F01E80C790DE11E04FF090F7DB
:101A6E00A4E0FEA3E0FF4E700590F7AEE4F02290E6
:101A7E00F7AE7402F07582002290F7A6E0FDA3E0A7
:101A8E00FEA3E0FF90DE16E0FC7B0090F7A9ECF0E1
:101A9E00EBA3F090F7ADE0FC30E10A90F7AE7403E3
:101AAE00F090FFFF2290F7ADE04402F090F7A9E02E
:101ABE00FBA3E0FCC374409BE49C500990F7A9740F
:101ACE0040F0E4A3F090F7A9E0FBA3E0FCEB4C6040
:101ADE001A90DE20E0FA8D828E838FF0122637A3C5
:101AEE00AD82AE831BBBFF011C80E290F7A9E0FE26
:101AFE00A3E0FFC3EE9440EF94005003120CFB9052
:101B0E00F7A9E0FEA3E08E82F583227531017532CE
:101B1E000090002575F04002193BAD82AE83AFF008
:101B2E0074022DFDE43EFE8D828E838FF012266FA1
:101B3E00FDA312266F8D25228582587C197D257E68
:101B4E008074012CF9E43DFA8E0389828A838BF02E
:101B5E0012266FFBAA57BBFF028052EBB5582BEA39
:101B6E0070047BFF80F01A8C828D838EF012266FAC
:101B7E002CFCE43DFD74012CF8E43DF98E078882BF
:101B8E0089838FF012266FFB80CC8C828D838EF032
:101B9E0012266F2CFCE43DFD74012CF8E43DF98E09
:101BAE0007888289838FF012266FFB80A98C828D25
:101BBE00838EF02285823585833685F03774022533
:101BCE0035F53FE43536F540853741853F82854012
:101BDE00838541F012266FF8A312266FF9893D75A1
:101BEE003E007401B53D06E4B53E02801A7402B59E
:101BFE003D06E4B53E02802C7403B53D07E4B53EC8
:101C0E0003021CB0021CCD8982755700121B46853B
:101C1E00823885833985F03A12266FFF8F3B753CEB
:101C2E0000021CE6898288048C57121B4685823876
:101C3E0085833985F03A74022538FBE43539FCADDD
:101C4E003A8B828C838DF012266FFB8B3B753C009A
:101C5E00853F828540838541F012266FA312266F41
:101C6E00FC7D0074012538FAE43539FBAF3A8A82DF
:101C7E008B838FF012266FFA7F00ECB50206EDB55E
:101C8E0007028054853F828540838541F012266F7E
:101C9E00FEA312266FFF751C108E828F8312158D78
:101CAE0080E2898288068E57121B4685823885838C
:101CBE003985F03A12266FFF8F3B753C00801989EB
:101CCE00828857121B4685823885833985F03A12F1
:101CDE00266FFF8F3B753C0074062535FDE43536C7
:101CEE00FEAF378D828E838FF012266FFEA31226E3
:101CFE006FFFC3EE953BEF953C50048E3B8F3C85BA
:101D0E003B31853C32853882853983853AF012190C
:101D1E003B853F828540838541F012266FA31226B4
:101D2E006FFE7F00BE021CBF0019D29090000212FF
:101D3E00154EC29090000A12154E90F7BDE0FF743A
:101D4E00014FF02290DE0EE4F090DE11E0FF30E461
:101D5E000E90F7AEE4F090DE11E0FE74804EF0EFE0
:101D6E0030E22490DE11E4F090F7207404F090F746
:101D7E00AEE4F0D2909000C8C00712154EC29090FB
:101D8E0000C812154ED00790F7AEE0FEBE0319D272
:101D9E00909001F4C00712154EC2909001F41215E6
:101DAE004ED00790F7AEE4F090F7AEE06003021F5E
:101DBE00BEEF20E003021FBE90DE0EE4F07F007C3B
:101DCE00427D007E4090DE20E0FB8C828D838EF083
:101DDE00122637A3AC82AD830FBF080040E7E54261
:101DEE00FF20E703021EDE74605FFE6015BE200357
:101DFE00021FA6BE4003021EBDBE6003021EC90224
:101E0E001FA6741F5FFE7045AD43BD0002801CBD52
:101E1E0006028005BD082A800C90004275F0401223
:101E2E001BC2021FA6121B19021FA6E4F54AF54B90
:101E3E00753102F53290004A75F04012193B021FBF
:101E4E00A690004275F0401225A4021FA6BE011AEC
:101E5E00AD43BD0003021FA6BD0A03021FA69000DC
:101E6E004275F0401225A4021FA6BE022DAD43BD41
:101E7E0000028008BD1203021FA680127531027582
:101E8E00320090268F75F08012193B021FA690002B
:101E9E004275F0401225A4021FA690004275F04034
:101EAE001225A490DE11E0FD74204DF0021FA690C5
:101EBE00004275F040120CFC021FA690DE11E0FDF0
:101ECE0074204DF090004275F0401225A4021FA61A
:101EDE0074605FFD6015BD2003021FA6BD400302A6
:101EEE001F89BD6003021F94021FA6741F5FFE7040
:101EFE003DAF43BF0103021FA6BF0303021FA6BFD0
:101F0E000502800BBF0703021FA6BF0916800990AA
:101F1E00DE00E544F0021FA690004275F040121B51
:101F2E0028807590004275F0401225A4806ABE018B
:101F3E001CAF43BF01028060BF0302805BBF110272
:101F4E00805690004275F0401225A4804BBE0217B9
:101F5E00AF43BF01028041BF0302803C9000427537
:101F6E00F0401225A4803190DE11E0FF74204FF076
:101F7E0090004275F0401225A4801D90004275F02D
:101F8E0040120CFC801290004275F0401225A49075
:101F9E00DE11E0FF74204FF090DE11E0FF74404F31
:101FAE00F0E5484549700990DE11E0FF74084FF0E6
:101FBE0090F7AEE0FFBF01031219F990F7AEE0FF04
:101FCE00BF0203021A872290DE0E7405F090F7BB53
:101FDE00E0FF30E11690F7BC7403F090DE14E0FFE2
:101FEE0074204FF090F7207405F02290F7BBE04478
:101FFE0002F090F7B4E0FEA3E0FFE5D130E11AD293
:10200E0090900014C007C00612154EC29090001496
:10201E0012154ED006D00780E143D68290F7BE74DB
:10202E00DEF090F7BF742AF08E048F058D0390F7C3
:10203E00C0EBF090F7C1ECF090F7C5E0543FF09094
:10204E00F7C5E054CF4410F090DE16E090F7C3F0E1
:10205E0090DE17E090F7C2541FF5F0E054E045F023
:10206E00F090F7C2E0541FFC7D0090F7C3E0FB7ABE
:10207E00002DF54EEA3CF54FC37440954EE4954F56
:10208E00502590F7BC7403F090DE14E0FB74204BE7
:10209E00F0E0FB74FE5BF0D29090012C12154EC254
:1020AE00909000C802154E43D60243D702E5D130B8
:1020BE00E1FBABD174FD5BF5D190F7B7E54EF0E5E2
:1020CE004FA3F0C3E54E9408E54F9400500302234E
:1020DE005690F7B4E0F554A3E0F555A3E0F5567429
:1020EE00042554F8E43555FAAB5688828A838BF072
:1020FE0012266FF55174052554F8E43555F9AA5694
:10210E00888289838AF012266FF55074062554FE54
:10211E00E43555FF8E828F83E0F9A3894E754F000B
:10212E00E0F9A3AE82AF8389008801E4F8254EF56D
:10213E004EE9354FF54F74FFB5510280030223511E
:10214E007480B55002802A7481B55002807A7482F0
:10215E00B550030222BC7483B550030222D174849D
:10216E00B550030222547485B550030222E80223AF
:10217E00348E828F83E0F9A3894E754F00E0F9A368
:10218E00AE82AF8389008801E4F8254EF54EE9351D
:10219E004FF54F8E828F83E0F9A3894C884DE0F97D
:1021AE00E4254CF54CE9354DF54D854C52854D5396
:1021BE0085502C854E2D854F2E85522F855330857B
:1021CE0051821216EC0223478E828F83E0FBA38B83
:1021DE004C754D00E0FBA3AE82AF838B028A03E405
:1021EE00254CF54CEB354DF54D854C52854D538EAA
:1021FE00028F03855254855355754C02754D00C39D
:10220E00E54C954EE54D954F50248A828B83E0FD2B
:10221E00A3AA82AB83855482855583EDF0A3858274
:10222E0054858355054CE4B54CD5054D80D1752F9D
:10223E009275302685502C752D01752E0085518294
:10224E001216EC0223478E828F83E0FDA38D4C7510
:10225E004D00E0FDA3AE82AF838D04E4254CF54C1A
:10226E00EC354DF54D854C52854D538E048F057AC8
:10227E00027B00C3EA954EEB954F501A8C828D83EC
:10228E00E0F9A3AC82AD83855282855383E9F00ACF
:10229E00BA00E00B80DD752F9475302685502C75B5
:1022AE002D01752E008551821216EC0223478550A2
:1022BE002C854E2D854F2E8E2F8F308551821216E6
:1022CE00EC8076752F9575302685502C752D0D75F5
:1022DE002E008551821216EC805F8E828F83E0FD78
:1022EE00A3AE82AF83BD0102800ABD0202801FBD74
:1022FE000334800DC007C006121298D006D0078096
:10230E0025C007C006120FC7D006D0078018854E0D
:10231E0019854F1A751B008E828F83C007C0061257
:10232E00100ED006D00785502C854E2D854F2E8E43
:10233E002F8F308551821216EC90F7BBE054FDFFC3
:10234E00F0800B120CF0800690F7207407F090DEF0
:10235E0014E0FF74FE5FF022E52330E411121D52EB
:10236E0074E75523FE740F5524FF8E238F24E52327
:10237E0030E01175220174FE5523FEAF248E238F9B
:10238E002443BE01E5235406602F90F71F740AF014
:10239E0075220274FD5523FEAF248E238F2490DE0A
:1023AE0001E0FF74044FF090000812154E90DE010C
:1023BE00E0FF74FB5FF0752200E52320E205740355
:1023CE00B5221412181390F71F740BF074FB5523DB
:1023DE00FEAF248E238F24E52430E63690F71F744B
:1023EE000CF090F7BCE0FFBF031A90F7207408F0D2
:1023FE0090F7BCE4F090DE0E7405F090DE14E0FF72
:10240E00749F5FF0121FD5AE2374BF5524FF8E2329
:10241E008F24E52354E07006E52454BD602090F728
:10242E00207409F0852382852483751C1012158D66
:10243E0074E05523FE74BD5524FF8E238F2474FF44
:10244E00B52213D29090000212154EC29090000A3F
:10245E0012154E75220022C0E0C082C083C007C094
:10246E0006C005C004C0D075D000E5BE30E6FBC284
:10247E00AF90DE06E0FF7E00E5234207E52442062C
:10248E008F238E2490DE02E0FDE4CDC4CD6DCD54BD
:10249E00F0CD6DFCED4207EC42068F238E2490DECC
:1024AE0004E025E0FCE4FD4207EC42068F23EEF546
:1024BE002430E11290F7BBE054FEF0AE2374FD55CC
:1024CE0024FF8E238F24758B00C2E8D2AFD0D0D0DC
:1024DE0004D005D006D007D083D082D0E032C0E041
:1024EE00C007C0D075D000E5BE30E6FBC2AFE589AF
:1024FE0030E703752202AFBE74FC5FF5BE7589002E
:10250E00C2C5D2AFD0D0D007D0E032120100020245
:10251E000000405104154701000102030109022089
:10252E000001010080FA0904000002FFFF0100070C
:10253E00058502F4010107050502400001040309A7
:10254E000424032200220022002200220022002264
:10255E00002200220022002200220022002200225D
:10256E000022002200260322002200220022002246
:10257E00002200220022002200220022002200223D
:10258E000022002200220022002200080322002244
:06259E0000220000FF22F4
:10268F00000000300000554E494D504C454D454E11
:04269F00544544005A
:1025A40022AE82AF837C007D008E028F038A828BF1
:1025B40083E493F9A3AA82AB83E960070CBC00ED22
:1025C4000D80EA8E2F8F30752CF08C2D8D2E758218
:1025D400FE0216EC85825A85835B85F05CAA57ABB4
:1025E40058AC59A85AA95BAF5C8A828B838CF012D1
:1025F400266FFEA3AA82AB83888289838FF0EE12B2
:102604002637A3A882A983EE70DF855A82855B836F
:04261400855CF022CF
:0603D000E478FFF6D8FD01
:10261800AC82AD83AE58AF59BE0004EF600C1F0FFB
:0F262800E557122637A3DEFADFF88C828D832266
:1003AE00798FE94400601B7A019026A378C6759375
:1003BE00F7E493F2A308B800020593D9F4DAF275C4
:0203CE0093FF9B
:1026370020F71130F6138883A88220F509F6A883BE
:102647007583002280FEF280F5F022E5828557F03F
:10265700A4C582C0F08558F0A4D0F025F0C58385C5
:0826670057F0A42583F583223E
:1003D6007800E84400600A79007593F0E4F309D8E0
:1003E600FC78C6E84407600C790890F000E4F0A3B6
:0403F600D8FCD9FA5C
:0D03A10075815C12268BE582600302039ECD
:10266F0020F71430F6148883A88220F507E6A88394
:10267F0075830022E280F7E49322E0227582002224
:00000001FF
