:060000000203A1021299A7
:01000B0032C2
:0100130032BA
:01001B0032B2
:0100230032AA
:01002B0032A2
:0300330002242F75
:01003B003292
:01004300328A
:01004B003282
:01005300327A
:01005B003272
:01006300326A
:03006B000224B6B6
:01007300325A
:01007B003252
:0300830002139ACB
:01008B003242
:01009300323A
:03009B0002093324
:0100A300322A
:0100AB003222
:0100B300321A
:0100BB003212
:0100C300320A
:0100CB003202
:0100D30032FA
:0300DB0002098C8B
:0100E30032EA
:0100EB0032E2
:0100F30032DA
:0100FB0032D2
:0101030032C9
:01010B0032C1
:0101130032B9
:01011B0032B1
:0101230032A9
:01012B0032A1
:010133003299
:01013B003291
:010143003289
:01014B003281
:010153003279
:01015B003271
:010163003269
:01016B003261
:010173003259
:01017B003251
:010183003249
:01018B003241
:010193003239
:01019B003231
:0101A3003229
:0101AB003221
:0101B3003219
:0101BB003211
:0301C300020835FA
:0101CB003201
:0101D30032F9
:0101DB0032F1
:0101E30032E9
:0101EB0032E1
:0101F30032D9
:0101FB0032D1
:0102030032C8
:01020B0032C0
:0102130032B8
:01021B0032B0
:0102230032A8
:01022B0032A0
:010233003298
:01023B003290
:010243003288
:01024B003280
:010253003278
:01025B003270
:010263003268
:01026B003260
:010273003258
:01027B003250
:010283003248
:01028B003240
:010293003238
:01029B003230
:0102A3003228
:0102AB003220
:0102B3003218
:0102BB003210
:0102C3003208
:0102CB003200
:0102D30032F8
:0102DB0032F0
:0102E30032E8
:0102EB0032E0
:0102F30032D8
:0102FB0032D0
:0103030032C7
:01030B0032BF
:0103130032B7
:01031B0032AF
:0103230032A7
:01032B00329F
:010333003297
:01033B00328F
:010343003287
:01034B00327F
:010353003277
:01035B00326F
:010363003267
:01036B00325F
:010373003257
:01037B00324F
:010383003247
:01038B00323F
:010393003237
:03039B000208A0B5
:1003FA00750D00750E00750F0075100075110075EA
:08040A00120075130002039EAD
:03039E00020DF855
:10041200AF82BF0128E5577012AFF174FE5FF5F1AC
:1004220043F33CAFF474C35FF5F422AFF174FD5FA4
:10043200F5F143F33CAFF4740F5FF5F422E5577026
:100442000E43F10143F43CAFF374C35FF5F322436F
:10045200F10243F4F0AFF374C35FF5F322AC82AD63
:1004620083AEF0FF53C680E5C620E6FB43BE048C94
:10047200C2E5C554E0FF3395E0FEFDFCE5574207B7
:10048200E5584206E5594205E55A42048FC522AFB6
:10049200827E007D00BD0500502FED75F004A4247E
:1004A200C6F58274F735F0F583E0F9A3E0FAA3E02C
:1004B200FBA3E0FCE9B5080EEAB5090AEBB50A06AA
:1004C200ECB50B028D060D80CCBF1802800CBF1A52
:1004D20002804ABF200302056222EE75F004A4FDE9
:1004E200AFF02416F582EF34F8F583E0F9A3E0FAD1
:1004F200A3E0FBA3E0FCED2402F582EF34F8F583E0
:10050200E0F557A3E0F558A3E0F559A3E0F55A89C1
:10051200828A838BF0ECC00612045FD006EE75F07F
:1005220004A4FDAFF024EEF582EF34F7F583E0F991
:10053200A3E0FAA3E0FBA3E0FCED24DAF582EF34BA
:10054200F7F583E0F557A3E0F558A3E0F559A3E0EA
:10055200F55A89828A838BF0ECC00612045FD006BA
:10056200EE75F004A4FEAFF0243EF582EF34F8F508
:1005720083E0FAA3E0FBA3E0FCA3E0FDEE242AF56E
:1005820082EF34F8F583E0F557A3E0F558A3E0F5E0
:1005920059A3E0F55A8A828B838CF0ED02045FAF97
:1005A2008290F208EF13E092E0F022AF8290F2081C
:1005B200EF13E092E1F022AF8290F208EF13E092A3
:1005C200E2F022AF8290F208EF13E092E3F022AF62
:1005D2008290F208EF13E092E4F022AF8290F208E8
:1005E200EF13E092E5F022AF8290F208EF13E0926F
:1005F200E6F022AF8290F208EF13E092E7F022AF2A
:100602008290F209EF13E092E0F022AD82AE83AF66
:10061200F08D028E038F048A828B838CF01226392E
:1006220030E00302071B438680ACC45304FE8D01F5
:100632008E028F0389828A838BF01226390354013A
:100642004CF5C4ACC45304FD8D018E028F03898224
:100652008A838BF01226390303540125E04CF5C43A
:10066200ACC45304FB8D018E028F0389828A838B73
:10067200F0122639C423540125E025E04CF5C4AC20
:10068200C45304F78D018E028F0389828A838BF013
:10069200122639C45401C40354F84CF5C4ACC453F3
:1006A20004EF8D018E028F0389828A838BF01226DA
:1006B20039C4035401C454F04CF5C4ACC45304DF30
:1006C2008D018E028F0389828A838BF01226392351
:1006D200235401C42354E04CF5C4ACC45304BF8D6D
:1006E200018E028F0389828A838BF012263923546A
:1006F20001030354C04CF5C4ACC55304DF74012D8F
:10070200F9E43EFA8F0389828A838BF012263954E8
:1007120001C42354E04CF5C52243F880ACFB5304DA
:10072200FE8D018E028F0389828A838BF012263915
:100732000354014CF5FBACFB5304FD8D018E028F7B
:100742000389828A838BF01226390303540125E040
:100752004CF5FBACFB5304FB8D018E028F038982A7
:100762008A838BF0122639C423540125E025E04CFC
:10077200F5FBACFB5304F78D018E028F0389828A4D
:10078200838BF0122639C45401C40354F84CF5FB90
:10079200ACFB5304EF8D018E028F0389828A838B17
:1007A200F0122639C4035401C454F04CF5FBACFBDF
:1007B2005304DF8D018E028F0389828A838BF012AC
:1007C200263923235401C42354E04CF5FBACFB53DC
:1007D20004BF8D018E028F0389828A838BF01226D9
:1007E20039235401030354C0F94CF5FBACFC530408
:1007F200DF0DBD00010E8D828E838FF012263954DB
:1008020001C42354E04CF5FC22AF8290F202740141
:10081200F0E4A3F0EF700DC2E9439A0490F100E016
:10082200F5C1800BC2EA439A0890F100E0F5F94362
:10083200A88022C0E0C082C083C007C006C005C035
:1008420004C0D075D000C2E990F202E0FEA3E0FF3E
:1008520090F206E0FCA3E0FDC3EC9EED9F501690E3
:10086200F202E4F0A3F090F206F0A3F0AD9A74F76E
:100872005DF59A801890F20274012EF0E43FA3F025
:10088200EE2400F582EF34F1F583E0F5C1D0D0D04B
:1008920004D005D006D007D083D082D0E032C0E0A9
:1008A200C082C083C007C006C005C004C0D075D0D6
:1008B20000C2EA90F202E0FEA3E0FF90F206E0FC42
:1008C200A3E0FDC3EC9EED9F501690F202E4F0A36C
:1008D200F090F206F0A3F0AD9A74F75DF59A8018E5
:1008E20090F20274012EF0E43FA3F0EE2400F582B0
:1008F200EF34F1F583E0F5F9D0D0D004D005D0067D
:10090200D007D083D082D0E032AF8290F200E4F000
:10091200A3F090F204F0A3F0EF700AC28B4386407A
:1009220043A8048008C28F43F84043A80843A88024
:1009320022C0E0C082C083C007C006C0D075D0000C
:10094200C28B90F204E0FEA3E0FF90F20474012E49
:10095200F0E43FA3F0EE2400F582EF34F0F583E5F6
:10096200C1F090F200E0FEA3E0FFC39401400E90BC
:10097200F200E4F0A3F0AFA874FB5FF5A8D0D0D0EA
:1009820006D007D083D082D0E032C0E0C082C083DC
:10099200C007C006C0D075D000C28F90F200E0FE42
:1009A200A3E0FF90F20074012EF0E43FA3F0EE24E6
:1009B20000F582EF34F0F583E5F9F090F200E0FE05
:1009C200A3E0FFC39401400E90F200E4F0A3F0AF65
:1009D200A874F75FF5A8D0D0D006D007D083D08214
:1009E200D0E03290F206E0FEA3E0FF4E6004758292
:1009F200012275820022AF83E58290F20AF0EFA312
:100A0200F0AE0C7F001EBEFF011F90F206EEF0EF6B
:100A1200A3F090F20AE0FEA3E0FF7D00C3ED950C87
:100A2200501AED2400FBE434F1FCED2EF582E43F94
:100A3200F583E0FA8B828C83F00D80E090F208E07F
:100A42005401F58202080BAF8290F2067401F0E4C1
:100A5200A3F090F100EFF090F208E05401F5820269
:100A6200080B90F204E0FEA3E0FF4E6004758201E1
:100A7200227582002290F200E0FEA3E0FFEE240045
:100A8200F582EF34F0F583E0FD90F20074012EF070
:100A9200E43FA3F090F200E0FEA3E0FF90F204E056
:100AA200FBA3E0FCC3EB9EEC9F500D90F204E4F03C
:100AB200A3F090F200F0A3F08D822290F206E0FE05
:100AC200A3E090F202E0FDA3E0EEC39DF58222AF27
:100AD200828F08750900750A00750B0075821A125B
:100AE200049190F20875F00012060D90F208E0549D
:100AF20001F58202090B22758201020A4975820000
:100B0200020A49850F19751A00751B0090F0000240
:100B12000FD890F000E0FFB50D02801E8F0D750E0C
:100B22000090F002E0FF8F0F75F011EF84F5107561
:100B3200F011EF84E5F06002051090F001E0FFFD96
:100B42007E001DBDFF011EAB0E7C00EBB5056FECF8
:100B5200B5066B8F0E7F03BF1400504A8F057E00CF
:100B6200AB0E7C00EB24FFF557EC34FFF5589000F8
:100B720011C007C006C00512261CAB82AC83D0058B
:100B8200D006D007EB2DFDEC3EFEED240CFDEE343D
:100B9200F2FEEF2400F582E434F0F583E0FC8D826E
:100BA2008E83F00F80B190F200E4F0A3F090F20493
:100BB200F0A3F0120AF9E50EB51006020B05020ABF
:100BC200FF227F00051190F40CE0FDE4FE240FF5F6
:100BD20082ED34F4F583E0F51375F01184F51275A6
:100BE200F011E51384E5F060020512751400C3E507
:100BF20014951240012290F30CE511F090F30DE5EB
:100C020014F090F30EE513F0E51475F011A4F51548
:100C120085F0168F03BB1100503A8B017A007403E2
:100C220029F8E43AFEE8240CF8EE34F3FE90F40CD2
:100C3200E0FCE4240FFDEC34F4FCE92515F9EA3577
:100C420016FAE92DF582EA3CF583E0FD88828E836F
:100C5200F00B80C18B07750C1490F30CC0071209BE
:100C6200F89001F4121518D0070514020BF0746401
:100C7200440A60099001F4121518120B14E517606A
:100C82006C90F71F740DF0AF9A74FE5FF59AE5173A
:100C920030E45490F40DE0FEA3E0FF4EB40100E412
:100CA20033FE90F40CF0EE2413FEE434F6FF8E8251
:100CB2008F83E07032120BC490F40CE02413F5829F
:100CC200E434F6F5837401F090F40CE0FEE4240FB2
:100CD200FFEE34F4FE7D008D578D587559018F82D9
:100CE2008E838DF01225E2751700439A012290F748
:100CF200BBE054FDF09000002222AD82AE83AFF043
:100D0200122639FC20E703020D9074012DFAE43E0D
:100D1200FB8F048A828B838CF0122639FC600DBC17
:100D22000102801ABC0202802A020DB675310275D8
:100D3200320090F71F75F000121905020DB690DE11
:100D420000E0FC7B007533288B348C828B83121974
:100D520064806174022DFAE43EFB8F048A828B83E5
:100D62008CF0122639FAA3122639FB74062DF8E408
:100D72003EF98F04888289838CF0122639F533A3D9
:100D8200122639F5348A828B831219648026740400
:100D92002DFDE43EFE8D828E838FF0122639FDA357
:100DA200122639FEED540F600B121A5190F7ADE086
:100DB20054FDFFF09000002243FD0FC280C281C2A9
:100DC20082C28343FE03C29022AFBE74FB5FF5BEB4
:100DD200E5BE30E6FBAFC674B85FF5C6E5C620E6F1
:100DE200FB43BE04E5BE30E6FB22120DCB120DBA68
:100DF200758248020AD1120DEC1218F390F852745F
:100E020001F0751800758201120E1AD2AF120AF89B
:080E1200122330120C7080F86D
:10266D00600900008025000000E1000000C20100AB
:10267D000084030006000000080000000B000000AD
:10268D000C0000000D00000083000000830000001E
:10269D0022000000220000002200000006000000C1
:1026AD00080000000B0000000C0000000D000000F1
:1026BD00A3000000A30000003B0000003B00000051
:1026CD003B00000006000000080000000A000000AA
:1026DD000B0000000C0000003B0000003B00000060
:0D26ED00D8000000D8000000D80000000058
:100E1A00AF827D177EF78ED57D177EF77E008DD443
:100E2A008E578E5875590290F40F75F000C007124C
:100E3A0025E275570075580075590190F61675F038
:100E4A00001225E2D00790DF2FE4F090DF30F09017
:100E5A00DF31F090DF0014F090DF01E4F090DF0260
:100E6A0014F090DF03E4F090DF04F090DF05F090D7
:100E7A00DF06F090DF077406F090DF08E4F0EF7009
:100E8A001490DF097424F090DF0A742EF090DF0BBF
:100E9A007438F0801190DF097426F090DF0A7430FC
:100EAA00F090DF0BE4F090DF0C7459F090DF0D74D2
:100EBA0066F090DF0E03F090DF0F7462F090DF109F
:100ECA00741AF090DF117413F090DF127407F09027
:100EDA00DF137430F090DF1403F090DF1514F090F4
:100EEA00DF16746CF090DF177403F090DF1874400B
:100EFA00F090DF197491F090DF1A7456F090DF1BAE
:100F0A007412F090DF1C74E9F090DF1D742AF090DF
:100F1A00DF1EE4F090DF1F741FF090DF237488F067
:100F2A0090DF247431F090DF257409F090DF27E414
:100F3A00F090DF28F090DF29F090DF2AF090DF2B85
:100F4A00F090DF2C7452F090DF2DE4F090DF2EF059
:100F5A00C2A87591D175E900751700439A01020F6D
:100F6A009175E10290DF3BE0FF540D60F790F716B0
:100F7A007403F02275E10390DF3BE0FF541360F73E
:100F8A0090F7167403F02275E10490DF3BE0FF301E
:100F9A00E0F890F7167403F0227E007F00C3EE9407
:100FAA00DCEF9405502490DF3CE0FD54506004903F
:100FBA00000122900032C007C00612153FD006D0A9
:100FCA000774322EFEE43FFF80D390000022AE82E7
:100FDA00AF83C007C006120F91D006D007E51945A6
:100FEA001A70118E828F83E0FD7C0074012DF51931
:100FFA00E43CF51AE51BB40100920092A87557006B
:10100A00851958851A5990F61675F000C007C0065A
:10101A001225E2D006D0078E578F5875590090F6E0
:10102A001675F000C007C0061225A2D006D0079098
:10103A00F853E4F0E51B70030210CF8F0590F71701
:10104A00EDF090F718EEF07ED97FDF8F0690F71952
:10105A00EEF07ED97FDF90F71AEEF0AF1A90F71B09
:10106A00EF541FF5F0E054E045F0F090F71BE05420
:10107A001FF0AF1990F71CEFF090F71DE054E04411
:10108A0013F090F71DE0549FF090F71DE0547FF0A5
:10109A0090F71EE054FC4401F090F71EE054FBF078
:1010AA0090F71EE054F7F090F71EE0543F4440F0EA
:1010BA0090F71EE054CFF07E177FF78FD57E177F0B
:1010CA00F77F008ED475E10290DF3BE0FF540D609C
:1010DA00F77F051FC007120FA3E5828583F0D007AB
:1010EA0045F07003EF70ECEF6031E51B601DAFD186
:1010FA0074FE5FF5D143D6810000000000000000B5
:10110A0075D601000000000000000075E10390DFC1
:10111A003BE0FF541360F77582012275820022E5D5
:10112A0082FFB40100920192A890F615EFF075576C
:10113A000075580075590190F40F75F000C0071238
:10114A0025E2D00790F60FE4F0A3F090F611F0A391
:10115A00F090F613F090F61404F090F40DE4F0A376
:10116A00F0AE9B74FC5EF59BAEE974EF5EF5E9EFB9
:10117A0070030212387ED97FDF8F0690F717EEF0E0
:10118A007ED97FDF90F718EEF090F40DE0FEA3E031
:10119A008E07E4240FEF34F4FE90F719EEF090F482
:1011AA000DE0FEA3E08E07E4240FFEEF34F490F77F
:1011BA001AEEF090F71BE054E0F090F71BE0541F92
:1011CA00F090F71C740CF090F71DE054E04413F013
:1011DA0090F71DE0549FF090F71DE0547FF090F7D0
:1011EA001EE054FC4401F090F71EE054FBF090F727
:1011FA001EE054F7F090F71EE0543FF090F71EE01F
:10120A0054CF4410F07E177FF78FD57E177FF78E65
:10121A00D4AFD174FE5FF5D143D68100000000003F
:10122A0000000075D601000000000000000075E112
:10123A000243911022AF9174EF5FF591120F91431F
:10124A00D681AFD174FE5FF5D1AF9B74FC5FF59B7D
:10125A00AFE974EF5FF5E92290F716E0FFBF0101ED
:10126A002290F7167401F090F615E0F58202112922
:10127A0090F716E0FFBF010912123F90F7167403A8
:10128A00F02290F8547401F02290F854E4F022C04D
:10129A00E0C082C083C007C006C005C004C003C046
:1012AA0002C001C000C0D075D00090F7207411F0C0
:1012BA0090DF3BE0FFBF0D02800302134F90F40D55
:1012CA00E0FEA3E08E07E4240FFEEF34F4FF90F46F
:1012DA000DE0FCA3E0CC25E0CC33FDEC240FFCEDC3
:1012EA0034F6FD8C828D83E0FAA3E0FB74012AF8C0
:1012FA00E43BF98C828D83E8F0E9A3F0EA2EF582CB
:10130A00EB3FF583E5D9F090F40DE0FEA3E0CE259E
:10131A00E0CE33FFEE240FF582EF34F6F583E0FEDC
:10132A00A3E0FFC39401404D90F40DE0FEA3E0CE8C
:10133A0025E0CE33FFEE240FF582EF34F6F583E491
:10134A00F0A3F0803090DF3BE0FFBF132890F85302
:10135A00E02416FFE434F6FE8F828E83E060169056
:10136A00F853E0FFE02401F0EF2416F582E434F6A6
:10137A00F583E0F5D9C289D0D0D000D001D002D00F
:10138A0003D004D005D006D007D083D082D0E03273
:10139A00C021C0E0C0F0C082C083C007C006C0053B
:1013AA00C004C003C002C001C000C0D075D0009004
:1013BA00F7207410F0AF9B74FC5FF59BE5E94217C8
:1013CA00E5E930E00AAFE974FE5FF5E90214FBE5EE
:1013DA00E930E61612123F90F615E0F5821211294D
:1013EA00AFE974BF5FF5E90214FBE5E930E70D12D6
:1013FA000F91AFE9747F5FF5E90214FBE5E920E498
:10140A00030214FB90F716E0FFBF020643D68102DF
:10141A0014F490F40DE0FEA3E0FF4EB40100E433AF
:10142A00FE2413F582E434F6F583E0FFBF0102805F
:10143A00030214B690F40DE0FEA3E0FF90F40D74DD
:10144A00016EF0EFA3F090F40DE0FEA3E0CE25E0EC
:10145A00CE33FFEE240FF582EF34F6F583E4F0A3E2
:10146A00F090F613F090F614F090F615E0FF700382
:10147A000214F490F40DE0FEA3E08E07E4240FEFCB
:10148A0034F4FE90F719EEF090F40DE0FEA3E08E2E
:10149A0007E4240FFEEF34F47F0090F71AEEF0759C
:1014AA00D6010000000000000000803E90F40DE02C
:1014BA00FEA3E08E07E4240FFEEF34F4FF7D008DD7
:1014CA00578D587559018E828F838DF01225E290BF
:1014DA00F40DE0FEA3E0CE25E0CE33FFEE240FF5B7
:1014EA0082EF34F6F583E4F0A3F0AFE974EF5FF529
:1014FA00E9D0D0D000D001D002D003D004D005D09A
:0E150A0006D007D083D082D0F0D0E0D02132BE
:0226FA000000DE
:10151800AE82AF831EBEFF011FC3E49E74808FF0AE
:1015280063F08095F0500F7CB07D041CBCFF011D5A
:10153800EC4D70F780DE22AE82AF831EBEFF011F26
:10154800C3E49E74808FF063F08095F040ED22AE86
:1015580082AF83C2AFD2909003E8C007C0061215CD
:1015680018C2909001F4121518D006D007151CADBA
:101578001CED20E754EE30E024900019C007C006A7
:10158800C005121518D290900226121518C2909014
:101598000019121518D005D006D007802290011323
:1015A800C007C006C005121518D290900032121557
:1015B80018C290900113121518D005D006D007EF65
:1015C800C313CE13CEFF1D80A8C2909003E8121556
:1015D80018D2AF22AF827E0190DE0E7405F0E527A7
:1015E80045287001227C647D0090F7BBE0FB30E069
:1015F8002CEC4D6028D290900002C007C006C005B0
:10160800C004121518C29090000A121518D004D000
:1016180005D006D00790F7207401F080CCBE012DCC
:101628007E0090DE2A7440F0EFF0E526F0AA277BD2
:1016380000EAF0E528F0C374EF9527740195285067
:10164800067CEF7D01801BAC27AD288015C374F4A0
:1016580095277401952850067CF47D018004AC27F9
:10166800AD28E527C39CF527E5289DF528A929AAD3
:101678002AAB2BEC4D700889298A2A8B2B801B8971
:10168800828A838BF0122639F8A3A982AA8390DE76
:101698002AE8F01CBCFF011D80D990DE11E0FD7422
:1016A800014DF090F7BBE04401FDF00215E6AF8272
:1016B8007E0190DE0E7405F0E52D452E7001227C2A
:1016C800647D0090F7BBE0FB30E031EC4D602DD23B
:1016D80090900002C007C006C005C004121518C2C9
:1016E8009090000A121518D004D005D006D00790A3
:1016F800F7207401F01CBCFF011D80C7BE012D7EC0
:101708000090DE2A7440F0EFF0E52CF0AC2D7D005F
:10171800ECF0E52EF0C374EF952D7401952E50066C
:101728007CEF7D01801BAC2DAD2E8015C374F49524
:101738002D7401952E50067CF47D018004AC2DADEE
:101748002EE52DC39CF52DE52E9DF52E43D682AAB8
:101758002FAB308B0190F7BEE9F07B0090F7BFEA22
:10176800F090F7C074DEF090F7C1742AF090F7C3D8
:10177800ECF090F7C2E054E0F090F7C5E0543F4435
:1017880040F090F7C5E054CFF043D60243D702E5C6
:10179800D130E1FBADD174FD5DF5D190DE11E0FDF6
:1017A80074014DF090F7BBE04401FDF00216C090C3
:1017B800DE00E0FF700F90F7BDE0FFBF01005005AD
:1017C80012233080EAD2909000C8121518C2909067
:1017D80000C8021518AFBE747F5FF5BE43BE807E99
:1017E800BE7FF78FD37EBE7FF78ED290F7C2E054CC
:1017F8001FF090F7C4E0547FF090F7C2E054E0F097
:1018080090F7C4E0549F4420F090F7C4E054E0F00F
:1018180090F7C5E04408F0E054FBF090F7C5E054B9
:10182800FC4401F090DE01E0FF74FE5FF0E4F52572
:10183800F523F524F52290DE0EF090DE107408F002
:1018480090DE13F090F7AEE4F090F7ADF090F7A4C7
:10185800F0A3F090F7A67421F074F7A3F0E4A3F0D6
:1018680090F7A9F0A3F090F7AB7440F0E4A3F090E0
:10187800DE0E7405F090DE10743FF090DE137408ED
:10188800F090DE15E0FF74804FF090DE12E0FF74F8
:10189800804FF090F7BCE4F090F7BBF090F7B2F00F
:1018A800A3F090F7B47461F074F7A3F0E4A3F09098
:1018B800F7B7F0A3F090F7B97440F0E4A3F090DE26
:1018C8000B74F7F090DE0774FFF090DE09F0438C9C
:1018D80010AF8C74FE5FF58CD2BD439A02758900F7
:1018E800C2C5758B00C2E8439A022290F71F7402A2
:1018F800F043BE800217DDD29022C29022AD82AEA4
:1019080083AFF090F7AEE06034D2909003E8121500
:1019180018C2909003E8121518D2909003E8121597
:1019280018C2909003E8121518D2909003E8121587
:1019380018C2909003E812151890FFFF2290F7A1A3
:10194800EDF0EEA3F0EFA3F090F7A4E531F0E53267
:10195800A3F090F7AE7401F090000022AE82AF833E
:1019680090F7AEE06034D2909003E8121518C29058
:101978009003E8121518D2909003E8121518C29037
:101988009003E8121518D2909003E8121518C29027
:101998009003E812151890FFFF227D0090F7A1EE42
:1019A800F0EFA3F0EDA3F090F7A4E533F0E534A34E
:1019B800F090F7AE7401F0900000227F0290DE0EE6
:1019C800E4F090F7A4E0FDA3E0FEC374409DE49E1C
:1019D80050047C4080048D047F0A8C027B00EDC398
:1019E8009AFDEE9BFE90F7A4EDF0EEA3F08C06EEC8
:1019F800603690F7A1E0FBA3E0FCA3E0FD8B828CAE
:101A0800838DF012263990DE20F090F7A1E0FBA339
:101A1800E0FCA3E0FD0BBB00010C90F7A1EBF0ECA0
:101A2800A3F0EDA3F01E80C790DE11E04FF090F711
:101A3800A4E0FEA3E0FF4E700590F7AEE4F022901C
:101A4800F7AE7402F07582002290F7A6E0FDA3E0DD
:101A5800FEA3E0FF90DE16E0FC7B0090F7A9ECF017
:101A6800EBA3F090F7ADE0FC30E10A90F7AE740319
:101A7800F090FFFF2290F7ADE04402F090F7A9E064
:101A8800FBA3E0FCC374409BE49C500990F7A97445
:101A980040F0E4A3F090F7A9E0FBA3E0FCEB4C6076
:101AA8001A90DE20E0FA8D828E838FF0122601A331
:101AB800AD82AE831BBBFF011C80E290F7A9E0FE5C
:101AC800A3E0FFC3EE9440EF94005003120CFB9088
:101AD800F7A9E0FEA3E08E82F58322753101753205
:101AE8000090002575F040021905AD82AE83AFF075
:101AF80074022DFDE43EFE8D828E838FF01226390E
:101B0800FDA31226398D25228582587CE37D247E0B
:101B18008074012CF9E43DFA8E0389828A838BF064
:101B2800122639FBAA57BBFF028052EBB5582BEAA5
:101B380070047BFF80F01A8C828D838EF012263918
:101B48002CFCE43DFD74012CF8E43DF98E078882F5
:101B580089838FF0122639FB80CC8C828D838EF09E
:101B68001226392CFCE43DFD74012CF8E43DF98E75
:101B780007888289838FF0122639FB80A98C828D91
:101B8800838EF02285823585833685F03774022569
:101B980035F53FE43536F540853741853F82854048
:101BA800838541F0122639F8A3122639F9893D7543
:101BB8003E007401B53D06E4B53E02801A7402B5D4
:101BC8003D06E4B53E02802C7403B53D07E4B53EFE
:101BD80003021C7A021C978982755700121B108514
:101BE800823885833985F03A122639FF8F3B753C58
:101BF80000021CB0898288048C57121B1085823819
:101C080085833985F03A74022538FBE43539FCAD13
:101C18003A8B828C838DF0122639FB8B3B753C0006
:101C2800853F828540838541F0122639A3122639E3
:101C3800FC7D0074012538FAE43539FBAF3A8A8215
:101C48008B838FF0122639FA7F00ECB50206EDB5CA
:101C580007028054853F828540838541F0122639EA
:101C6800FEA3122639FF751C108E828F831215571A
:101C780080E2898288068E57121B108582388583F8
:101C88003985F03A122639FF8F3B753C0080198957
:101C9800828857121B1085823885833985F03A125D
:101CA8002639FF8F3B753C0074062535FDE4353633
:101CB800FEAF378D828E838FF0122639FEA312264F
:101CC80039FFC3EE953BEF953C50048E3B8F3C8526
:101CD8003B31853C32853882853983853AF0121943
:101CE80005853F828540838541F0122639A3122657
:101CF80039FE7F00BE021CBF0019D290900002126C
:101D08001518C29090000A12151890F7BDE0FF74DC
:101D1800014FF02290DE0EE4F090DE11E0FF30E497
:101D28000E90F7AEE4F090DE11E0FE74804EF0EF16
:101D380030E22490DE11E4F090F7207404F090F77C
:101D4800AEE4F0D2909000C8C007121518C2909067
:101D580000C8121518D00790F7AEE0FEBE0319D2DE
:101D6800909001F4C007121518C2909001F4121552
:101D780018D00790F7AEE4F090F7AEE06003021FCA
:101D880088EF20E003021F8890DE0EE4F07F007CDD
:101D9800427D007E4090DE20E0FB8C828D838EF0B9
:101DA800122601A3AC82AD830FBF080040E7E542CD
:101DB800FF20E703021EA874605FFE6015BE2003C3
:101DC800021F70BE4003021E87BE6003021E9302FC
:101DD8001F70741F5FFE7045AD43BD0002801CBDBF
:101DE80006028005BD082A800C90004275F040125A
:101DF8001B8C021F70121AE3021F70E4F54AF54BA0
:101E0800753102F53290004A75F040121905021F2B
:101E18007090004275F04012256E021F70BE011AC4
:101E2800AD43BD0003021F70BD0A03021F7090007E
:101E38004275F04012256E021F70BE022DAD43BDE3
:101E480000028008BD1203021F70801275310275EE
:101E5800320090265975F080121905021F70900003
:101E68004275F04012256E021F7090004275F040D6
:101E780012256E90DE11E0FD74204DF0021F709067
:101E8800004275F040120CFC021F7090DE11E0FD5C
:101E980074204DF090004275F04012256E021F70BC
:101EA80074605FFD6015BD2003021F70BD40030212
:101EB8001F53BD6003021F5E021F70741F5FFE7018
:101EC8003DAF43BF0103021F70BF0303021F70BF72
:101ED8000502800BBF0703021F70BF091680099017
:101EE800DE00E544F0021F7090004275F040121ABF
:101EF800F2807590004275F04012256E806ABE012E
:101F08001CAF43BF01028060BF0302805BBF1102A8
:101F1800805690004275F04012256E804BBE021725
:101F2800AF43BF01028041BF0302803C900042756D
:101F3800F04012256E803190DE11E0FF74204FF0E2
:101F480090004275F04012256E801D90004275F099
:101F580040120CFC801290004275F04012256E90E1
:101F6800DE11E0FF74204FF090DE11E0FF74404F67
:101F7800F0E5484549700990DE11E0FF74084FF01C
:101F880090F7AEE0FFBF01031219C390F7AEE0FF70
:101F9800BF0203021A512290DE0E7405F090F7BBBF
:101FA800E0FF30E11690F7BC7403F090DE14E0FF18
:101FB80074204FF090F7207405F02290F7BBE044AE
:101FC80002F090F7B4E0FEA3E0FFE5D130E11AD2C9
:101FD80090900014C007C006121518C29090001403
:101FE800121518D006D00780E143D68290F7BE7448
:101FF800DEF090F7BF742AF08E048F058D0390F7FA
:10200800C0EBF090F7C1ECF090F7C5E0543FF090CA
:10201800F7C5E054CF4410F090DE16E090F7C3F017
:1020280090DE17E090F7C2541FF5F0E054E045F059
:10203800F090F7C2E0541FFC7D0090F7C3E0FB7AF4
:10204800002DF54EEA3CF54FC37440954EE4954F8C
:10205800502590F7BC7403F090DE14E0FB74204B1D
:10206800F0E0FB74FE5BF0D29090012C121518C2C0
:10207800909000C802151843D60243D702E5D13024
:10208800E1FBABD174FD5BF5D190F7B7E54EF0E518
:102098004FA3F0C3E54E9408E54F94005003022384
:1020A8002090F7B4E0F554A3E0F555A3E0F5567495
:1020B800042554F8E43555FAAB5688828A838BF0A8
:1020C800122639F55174052554F8E43555F9AA5600
:1020D800888289838AF0122639F55074062554FEC1
:1020E800E43555FF8E828F83E0F9A3894E754F0042
:1020F800E0F9A3AE82AF8389008801E4F8254EF5A4
:102108004EE9354FF54F74FFB55102800302231B8A
:102118007480B55002802A7481B55002807A748226
:10212800B550030222867483B5500302229B74843F
:10213800B5500302221E7485B550030222B2022252
:10214800FE8E828F83E0F9A3894E754F00E0F9A3D4
:10215800AE82AF8389008801E4F8254EF54EE93553
:102168004FF54F8E828F83E0F9A3894C884DE0F9B3
:10217800E4254CF54CE9354DF54D854C52854D53CC
:1021880085502C854E2D854F2E85522F85533085B1
:1021980051821216B60223118E828F83E0FBA38B25
:1021A8004C754D00E0FBA3AE82AF838B028A03E43B
:1021B800254CF54CEB354DF54D854C52854D538EE0
:1021C800028F03855254855355754C02754D00C3D3
:1021D800E54C954EE54D954F50248A828B83E0FD62
:1021E800A3AA82AB83855482855583EDF0A38582AB
:1021F80054858355054CE4B54CD5054D80D1752FD4
:102208005C75302685502C752D01752E0085518200
:102218001216B60223118E828F83E0FDA38D4C75B2
:102228004D00E0FDA3AE82AF838D04E4254CF54C50
:10223800EC354DF54D854C52854D538E048F057AFE
:10224800027B00C3EA954EEB954F501A8C828D8322
:10225800E0F9A3AC82AD83855282855383E9F00A05
:10226800BA00E00B80DD752F5E75302685502C7521
:102278002D01752E008551821216B6022311855044
:102288002C854E2D854F2E8E2F8F3085518212161C
:10229800B68076752F5F75302685502C752D0D7597
:1022A8002E008551821216B6805F8E828F83E0FDE4
:1022B800A3AE82AF83BD0102800ABD0202801FBDAA
:1022C8000334800DC007C006121262D006D0078002
:1022D80025C007C006120F91D006D0078018854E7A
:1022E80019854F1A751B008E828F83C007C006128E
:1022F8000FD8D006D00785502C854E2D854F2E8EB1
:102308002F8F308551821216B690F7BBE054FDFF2F
:10231800F0800B120CF0800690F7207407F090DE26
:1023280014E0FF74FE5FF022E52330E411121D1C57
:1023380074E75523FE740F5524FF8E238F24E5235D
:1023480030E01175220174FE5523FEAF248E238FD1
:102358002443BE01E5235406602F90F71F740AF04A
:1023680075220274FD5523FEAF248E238F2490DE40
:1023780001E0FF74044FF090000812151890DE0178
:10238800E0FF74FB5FF0752200E52320E20574038B
:10239800B522141217DD90F71F740BF074FB552348
:1023A800FEAF248E238F24E52430E63690F71F7481
:1023B8000CF090F7BCE0FFBF031A90F7207408F008
:1023C80090F7BCE4F090DE0E7405F090DE14E0FFA8
:1023D800749F5FF0121F9FAE2374BF5524FF8E2396
:1023E8008F24E52354E07006E52454BD602090F75F
:1023F800207409F0852382852483751C10121557D3
:1024080074E05523FE74BD5524FF8E238F2474FF7A
:10241800B52213D290900002121518C29090000AAB
:1024280012151875220022C0E0C082C083C007C000
:1024380006C005C004C0D075D000E5BE30E6FBC2BA
:10244800AF90DE06E0FF7E00E5234207E524420662
:102458008F238E2490DE02E0FDE4CDC4CD6DCD54F3
:10246800F0CD6DFCED4207EC42068F238E2490DE02
:1024780004E025E0FCE4FD4207EC42068F23EEF57C
:102488002430E11290F7BBE054FEF0AE2374FD5502
:1024980024FF8E238F24758B00C2E8D2AFD0D0D012
:1024A80004D005D006D007D083D082D0E032C0E077
:1024B800C007C0D075D000E5BE30E6FBC2AFE589E5
:1024C80030E703752202AFBE74FC5FF5BE75890064
:1024D800C2C5D2AFD0D0D007D0E03212010002027C
:1024E80000004051041547010001020301090220C0
:1024F8000001010080FA0904000002FFFF01000743
:10250800058502F4010107050502400001040309DD
:10251800042403220022002200220022002200229A
:102528000022002200220022002200220022002293
:10253800002200220026032200220022002200227C
:102548000022002200220022002200220022002273
:10255800002200220022002200220008032200227A
:0625680000220000FF222A
:10265900000000300000554E494D504C454D454E47
:042669005445440090
:10256E0022AE82AF837C007D008E028F038A828B27
:10257E0083E493F9A3AA82AB83E960070CBC00ED58
:10258E000D80EA8E2F8F30752CF08C2D8D2E75824E
:10259E00FE0216B685825A85835B85F05CAA57AB20
:1025AE0058AC59A85AA95BAF5C8A828B838CF01207
:1025BE002639FEA3AA82AB83888289838FF0EE121E
:1025CE002601A3A882A983EE70DF855A82855B83DC
:0425DE00855CF02206
:0603D000E478FFF6D8FD01
:1025E200AC82AD83AE58AF59BE0004EF600C1F0F32
:0F25F200E557122601A3DEFADFF88C828D8322D3
:1003AE00798FE94400601B7A0190266D78C67593AB
:1003BE00F7E493F2A308B800020593D9F4DAF275C4
:0203CE0093FF9B
:1026010020F71130F6138883A88220F509F6A883F4
:102611007583002280FEF280F5F022E5828557F075
:10262100A4C582C0F08558F0A4D0F025F0C58385FB
:0826310057F0A42583F5832274
:1003D6007800E84400600A79007593F0E4F309D8E0
:1003E600FC78C6E84407600C790890F000E4F0A3B6
:0403F600D8FCD9FA5C
:0D03A10075815C122655E582600302039E03
:1026390020F71430F6148883A88220F507E6A883CA
:1026490075830022E280F7E49322E022758200225A
:00000001FF
